:020000040000FA
:0400000082313E2AE1
:100008007E1480312E000F1C0A280B283C2A8D31C3
:100018001F258031F4007408F500EB297508F400F9
:1000280074082000EB00F62920005C08031D1D2839
:100038001E282628750A031D222823282628200082
:100048000F16F62920000F12F62980307506031DB9
:100058002E282F283228F701F70AF629F701F62962
:1000680080307506031D39283A283D28F801F80A1A
:10007800F629F801F62980307506031D442845281D
:1000880059282100DA01DB018030F4007408DC0013
:100098008030F4007408DD008030F4007408DE005D
:1000A8002830F4007408DF00F6292100DA01DB01AA
:1000B8008030F4007408DC004030F4007408DD007F
:1000C800DE015030F4007408DF00F6298030750630
:1000D800031D6F2870287B282100DA01DB01DC0171
:1000E800E030F4007408DD00DE01DF01F6292100AC
:1000F800DA01DB01DC012030F4007408DD00782827
:100108007508F40074082000E900F6297508F40061
:1001180074082000DC00F6297608023A0319122830
:10012800203A03193428103A03196A28703A031937
:100138001828203A03193F28D03A03198A28703A18
:1001480003192928303A03198428F6297508F40078
:1001580074082000EA00F629803020005B06031DA1
:10016800B628B728262875088E3165268031F40010
:1001780040307402031CC128C22826282328C03016
:100188007506031DC828C928CD282000ED01ED0AF1
:10019800F6292000ED01F6297508F40074082000FE
:1001A800E800F6297508F40074082000DB00F62939
:1001B8007608023A0319AA28203A0319C328603A94
:1001C8000319B028F03A0319D628403A0319D02861
:1001D800F6297508F40074082000E700F629760867
:1001E800F23A0319ED28F6292100DA01DB01403043
:1001F800F4007408DC00DD01DE015A30F4007408F4
:10020800DF007508F4007408F600F6297808031D65
:100218000E290F2914292100DA01DB01DC01DF0195
:1002280078080319182919292A29FF30F4007408B5
:100238002100DA00FF30F4007408DB00C030F4005D
:100248007408DC005A30F4007408DF002100DD0176
:10025800DE01F629D83087314D2780310529770806
:1002680003193729382940292100DA01DB01DC018B
:10027800DD01DE01DF010529D83087314D278031C6
:100288000529C030F40074082100DA004030F40079
:100298007408DB007808031952295329582980303B
:1002A800F4007408DC005929DC014030F4007408BB
:1002B800DD008030F4007408DE00DF01F62921003B
:1002C800DA01DB018030F4007408DC008030F400CF
:1002D8007408DD008030F4007408DE005030F4004B
:1002E8007408DF0005292100DA01DB014030F40041
:1002F8007408DC00DD018030F4007408DE00792821
:100308002100DA01DB01DC012030F4007408DD0093
:10031800DE01DF01052920005C08F40074082100D3
:10032800DA0020005B08F40074082100DB00FF30CD
:10033800F4007408DC00FF30F4007408DD00FF30BE
:10034800F4007408DE00FF30F4007408DF0075085C
:10035800F4007408F600F6292100DA01DB01DC015B
:10036800DD01DE015A30F4007408DF007508F4007E
:100378007408F6007803031DC229C329F629023040
:10038800F4007408F800F6297508023A0319F828E9
:10039800203A03193829103A03198429703A0319A5
:1003A8002E29203A03196329E03A03190A29203A29
:1003B80003194529103A03198F29703A031933296B
:1003C800203A03197729103A0319B029F629790830
:1003D800033A03199028073A0319DC28013A03194C
:1003E800F328C8297908D83E8600870101088D318D
:1003F8001425803120000C12003200320032003205
:1004080020000C165D08790203180B2A0C2A102A02
:100418000130F4007408F90777080319142A152A1B
:100428001B2ACF30F40074082100D8003A2A780833
:10043800031D1F2A202A252A8230F400740821006F
:10044800D8007803031D292A2A2A2F2ACE30F4003F
:1004580074082100D80002307802031C342A352A97
:100468003A2A9E30F40074082100D8002E000F109C
:100478007E1009008231402A8731FC278231FB0037
:10048800F0308400873085005A30860000308700BD
:100498000030FF000C308D315125823197308400B7
:1004A8008D308500D8308600003087000030FF008E
:1004B80014308D3151258231F0308400233085008D
:1004C8000030FE000430FF008D3145258231F601F1
:1004D800F701F801F901FA01E601E701E801E9018C
:1004E800EA01EB01EC01ED01A03084000030850049
:1004F8003830FE000030FF008D3145258231220062
:10050800A001A101A201A301A401A501A601A701BF
:100518007E1020008F31322F60308D315D25823181
:100528002000B9003908C20061308D315D25823163
:100538002000B9003908C30062308D315D25823151
:100548002000B9003908C40063308D315D2582313F
:100558002000B9003908C50064308D315D2582312D
:100568002000B9003908C60065308D315D2582311B
:100578002000B9003908C70066308D315D25823109
:100588002000B9003908C80067308D315D258231F7
:100598002000B9003908C900CA01CB0120004B0866
:1005A800803AB90080303902031DDC2A42084A0229
:1005B8000318DF2AE02AED2AF0302000B90026309F
:1005C800BA004A08390786004B083A3D870081017E
:1005D8003A2B20004B08803A803C031DF52A4A0834
:1005E80043020318F82AF92A0B2BF0302000B9002F
:1005F8002630BA004A083907BB004B083A3DBC0010
:100608003B0886003C088700FF3081003A2B200019
:100618004B08B0004A08AF004208B900BA013908CF
:10062800B1003A08B2004308BB00BC013B08B30064
:100638003C08B4000030B500B600FF30B700003009
:10064800B8008D31CB2582312000BD00F030BE00CE
:100658002630BF004A083E07C0004B083F3DC10096
:1006680040088600410887003D0881004B08803A11
:10067800B90080303902031D432B44084A0203188D
:10068800462B472B542BF0302000B9002530BA00F8
:100698004A08390786004B083A3D87008101A12B9B
:1006A80020004B08803A803C031D5C2B4A08450219
:1006B80003185F2B602B722BF0302000B900253017
:1006C800BA004A083907BB004B083A3DBC003B0852
:1006D80086003C088700FF308100A12B20004B08D2
:1006E800B0004A08AF004408B900BA013908B1009F
:1006F8003A08B2004508BB00BC013B08B3003C08FF
:10070800B4000030B500B600FF30B7000030B800C4
:100718008D31CB2582312000BD00F030BE00253060
:10072800BF004A083E07C0004B083F3DC1004008D3
:100738008600410887003D0881004B08803AB900CF
:1007480080303902031DAA2B46084A020318AD2B34
:10075800AE2BBB2BF0302000B9002430BA004A0879
:10076800390786004B083A3D87008101082C200094
:100778004B08803A803C031DC32B4A0847020318E4
:10078800C62BC72BD92BF0302000B9002430BA0073
:100798004A083907BB004B083A3DBC003B088600B5
:1007A8003C088700FF308100082C20004B08B0006F
:1007B8004A08AF004608B900BA013908B1003A083A
:1007C800B2004708BB00BC013B08B3003C08B400BA
:1007D8000030B500B600FF30B7000030B8008D31EA
:1007E800CB2582312000BD00F030BE002430BF0090
:1007F8004A083E07C0004B083F3DC100400886003C
:10080800410887003D0881004B08803AB9008030D4
:100818003902031D112C48084A020318142C152C00
:10082800222CF0302000B9002330BA004A083907DA
:1008380086004B083A3D870081016F2C20004B0849
:10084800803A803C031D2A2C4A08490203182D2CA3
:100858002E2C402CF0302000B9002330BA004A0872
:100868003907BB004B083A3DBC003B0886003C08F2
:100878008700FF3081006F2C20004B08B0004A0829
:10088800AF004808B900BA013908B1003A08B20007
:100898004908BB00BC013B08B3003C08B400003069
:1008A800B500B600FF30B7000030B8008D31CB2559
:1008B80082312000BD00F030BE002330BF004A085E
:1008C8003E07C0004B083F3DC10040088600410874
:1008D80087003D0881000130CA070030CB3D4B0836
:1008E800803AB90081303902031D7C2C00304A025D
:1008F800031C7F2C802CD22A08002000A200003084
:100908000F1A0130FB007B085A0603198C2C8D2C1A
:100918008F2CE601992C043066020318942C952C30
:10092800992C0130A0002008E60704306602031C59
:100938009E2C9F2CA32C7B08A0002008E5007B0898
:10094800A0002008DA0000308C1B01302100C10013
:10095800003020000C1B01302100C30000302000B3
:100968000D1801302100C000003020008D18013022
:100978002100C200003020000F1801302100C500FE
:10098800003020000E1901302100C6000030200080
:100998000D1B01302100C400003020008D1B0130E8
:1009A8002100C700003020000C1801302100B800D9
:1009B800003020008C1901302100BA0000302000DE
:1009C8000C1901302100B900003020008C180130CA
:1009D8002100BB00003020000D1A01302100BC00AE
:1009E800003020008D1A01302100BE0000302000A8
:1009F8000D1901302100BD00003020008D19013093
:100A08002100BF0008307A02031C0B2D0C2D0D2D80
:100A1800FA017A08C03E860087010108031D152DDA
:100A2800162D1F2D01302000A0007A08A83E860050
:100A38008701200881077A08B83E860087010108E7
:100A4800031D272D282D312D01302000A0007A0804
:100A5800A03E86008701200881077A08B03E8600FC
:100A680087017A08C03E8400850100080106031941
:100A78003E2D3F2D5A2D7A08A83E86008701810118
:100A880001302000A0007A0A4A2DA035890B492D93
:100A98002008A1002108E40422080319542D552D2B
:100AA8005A2D7A08D03E8600870181017A08203EB7
:100AB8008600013087007A08B83E84008501000866
:100AC80001060319682D692D842D7A08A03E860039
:100AD8008701810101302000A0007A0A742DA03519
:100AE800890B732D2008A1002108E30422080319AB
:100AF8007E2D7F2D842D7A08C83E860087018101CE
:100B08007A08A83E8600870103300102031C8D2D58
:100B18008E2DA82D01302000A0007A0A942DA03532
:100B2800890B932D2008FF3AA1002108E40522082B
:100B380003199F2DA02DA82DFF30A0007A08D03EC4
:100B480086008701200881007A08A03E8600870178
:100B580003300102031CB12DB22DCC2D0130200031
:100B6800A0007A0AB82DA035890BB72D2008FF3AC6
:100B7800A1002108E30522080319C32DC42DCC2D9B
:100B8800FF30A0007A08C83E86008701200881004F
:100B98007A08C03E8600870101082000A0007A0874
:100BA800B03E86008701200881007A08B83E86009A
:100BB80087010108A0007A08203E860001308700DE
:100BC800200881000130A0002008FA0708008B13D4
:100BD8000B1311302000A0000030A1008E313A26FE
:100BE800853120002008CC004C08CD001130A00031
:100BF8000030A1008E313A26853120002008CC0033
:100C08004C08CE001030A0000030A1008E313A26EA
:100C1800853120002008CC004C08CF001030A000FF
:100C28000030A1008E313A26853120002008CC0002
:100C38004C08D0001630A0000030A1008E313A26B2
:100C4800853120002008CC004C08D1001630A000C7
:100C58000030A1008E313A26853120002008CC00D2
:100C68004C08D2001730A0000030A1008E313A267F
:100C7800853120002008CC004C08D3001730A00094
:100C88000030A1008E313A26853120002008CC00A2
:100C98004C08D40000308431812485317F30200015
:100CA8006406031D582E592E602ECF306306031D8F
:100CB8005E2E5F2E602E002F1130A0000030A100A4
:100CC8008E313A26853120002008CC004C08D5000A
:100CD8001030A0000030A1008E313A268531200066
:100CE8002008CC004C08D6001630A0000030A10027
:100CF8008E313A26853120002008CC004C08D700D8
:100D08001730A0000030A1008E313A26853120002E
:100D18002008CC004C08D800560850020318952E1D
:100D2800962E9A2E5608CC004C08D0004F08560232
:100D380003189F2EA02EA42E5608CC004C08CF00D6
:100D480055084E020318A92EAA2EAE2E5508CC001F
:100D58004C08CE004D0855020318B32EB42EB82EF9
:100D68005508CC004C08CD00580854020318BD2E75
:100D7800BE2EC22E5808CC004C08D4005308580286
:100D88000318C72EC82ECC2E5808CC004C08D30008
:100D9800570852020318D12ED22ED62E5708CC004F
:100DA8004C08D200510857020318DB2EDC2EE02E27
:100DB8005708CC004C08D1006F306406031DE52E9F
:100DC800E62E4E2E3F306306031DEB2EEC2E4E2EE4
:100DD800CD01FF30CC004C08CE00CF01FF30CC0055
:100DE8004C08D000D101FF30CC004C08D200D30110
:100DF800FF30CC004C08D4004D08CC004C08A000B3
:100E080060308D31ED25853120004E08CC004C082E
:100E1800A00061308D31ED25853120004F08CC00D0
:100E28004C08A00062308D31ED2585312000500836
:100E3800CC004C08A00063308D31ED2585312000B1
:100E48005108CC004C08A00064308D31ED25853167
:100E580020005208CC004C08A00065308D31ED25EB
:100E6800853120005308CC004C08A00066308D3135
:100E7800ED25853120005408CC004C08A0006730CF
:100E88008D31ED2585318231902285318B170B17F5
:100E98000800F10020006408F0007108023E860096
:100EA8008701700881006308F0007108033E86001E
:100EB8008701700881006208F0007108043E86000E
:100EC8008701700881006108F0007108053E8600FE
:100ED8008701700881006008F0007108063E8600EE
:100EE8008701700881005F08F0007108073E8600DE
:100EF80087017008810002307806031D842F852F32
:100F0800EB2F1430F0007008DD0021005208F000CB
:100F18007108083E86008701700881005008F000BB
:100F28007108093E86008701700881005308F000A7
:100F380071080A3E86008701700881005108F00098
:100F480071080B3E86008701700881004B08F0008D
:100F580071080C3E86008701700881004A08F0007D
:100F680071080D3E86008701700881004908F0006D
:100F780071080E3E86008701700881004808F0005D
:100F880071080F3E86008701700881004D08F00047
:100F98007108103E86008701700881004C08F00037
:100FA8007108113E86008701700881004F08F00023
:100FB8007108123E86008701700881004E08F00013
:100FC8007108133E8600870170088100EF2F0530F5
:100FD800F0007008DD0008000134FF34FF340934E4
:100FE8000334F734F734F734F734FF34FF3401347B
:020FF8000134C2
:101A2800F000700823008C00080023000F1C1D2DF7
:101A38001E2D192D08008D3119258D3123000C0814
:101A4800080055303D008F00AA308F008F01080034
:101A5800553030009F00AA309F009E140800553072
:101A68003D008F00AA308F0001308F00080004303D
:101A780021009300940195019A013F309800931733
:101A880008006400800101310130FE020030FF3B94
:101A98007F087E04031D462D0034FE0012001E0040
:101AA8000130FE020030FF3B7F087E04031D522DEB
:101AB80000342000A10030001E17F0309B002000E9
:101AC800210830009A001E141C082000A0002008DD
:101AD800A200220808002000A300231D742D752DE4
:101AE800792D220823008F007D2D20082204230051
:101AF8008F00200023082104230090000800200004
:101B0800A0011030A4002408A1004030A500250839
:101B1800A20024308D316F258D318B170B172E00C5
:101B28000F101914080082345A3400340034003479
:101B380000340034003400340034003400340034FD
:101B48000034003400340034003400340034200001
:101B5800A401A501201CB12DB22DB62D2208A40781
:101B68002308A53D0130A235A30D890BB72D0130FF
:101B7800A136A00C890BBC2D20082104031DC52DFE
:101B8800C62DAE2D2508A1002408A00008002000BD
:101B980031083302A6003208343BA70031082F026F
:101BA800A0003208303BA10035083702A2003608F1
:101BB800383BA3008D31AB258D3120002108A900C9
:101BC8002008A8008E31D2268D312000260835073E
:101BD80008002000A10000308B1B0130A2008B13ED
:101BE80030001E171E15F0309B0020002108300021
:101BF8009A002000200830009C008D312C258D3162
:101C080030009E18082E092E042E1E1120002208CE
:101C180003190F2E102E112E8B170800FF302000ED
:101C28009100FF309200FF309300EF309400FF30B6
:101C380095003E00B801C301C330CE00D901E401CC
:101C4800CF30B900FF30C4000430CF000130DA00D3
:101C5800E5012000931211128D3125258E311530A2
:101C68003E00A5008D3133258E3108002000200864
:101C780021009E009C013F309D0013141318452E2F
:101C8800462E422E0C082000A2000230A236890BF4
:101C98004A2E2208A300A40121000D082000A50057
:101CA800A6010630A535A60D890B562E2308250456
:101CB800A70024082604A8002708A0002808A100D7
:101CC8000800F30073080F39F0000430F035890B71
:101CD8006A2E7308F1000430F136890B702E7108F2
:101CE8000F397004F2007208F30073083339F000FA
:101CF8000230F035890B7D2E7308F1000230F13681
:101D0800890B832E710833397004F2007208F300CE
:101D180073085539F0000130F035890B902E733671
:101D280055397004F1007108F300730808002000A9
:101D3800A30023080F39A0000430A035890BA12E79
:101D48002308A1000430A136890BA72E21080F39DA
:101D58002004A2002208A30023083339A00002307F
:101D6800A035890BB42E2308A1000230A136890BB7
:101D7800BA2E210833392004A2002208A300230820
:101D88005539A0000130A035890BC72E23365539A7
:101D98002004A1002108A300230808002000AC01AA
:101DA800A71FD72ED82EDF2EA609A709A60A031922
:101DB800A70AAC01AC0AA91FE22EE32EEC2EA80953
:101DC800A909A80A0319A90A0130AA002A08AC0619
:101DD800AD01AE01260827040319F32EF42E232F94
:101DE800AB01AB0A002F0130A635A70D890BF82EE1
:101DF8000130AA002A08AB07A71F032F042FF72ECC
:101E08000130AD35AE0D890B052F27082902031DBA
:101E18000F2F26082802031C122F132F182F26080D
:101E2800A8022708A93B2D140130A736A60C890B58
:101E3800192F0130AB02031D222F232F042F2C084A
:101E48000319272F282F2D2FAD09AE09AD0A031925
:101E5800AE0A2E08A7002D08A60008008D3183259C
:101E68008F318E3112268F318D313B258F31823162
:101E780090228F315A302000D90059082100D9000A
:101E8800EC01ED0120000C167F3020006406031DD4
:101E98004E2F4F2F582F5F306306031D542F552F99
:101EA800582F8531EB258F31003020008C1A0130F6
:101EB8002100EE006E080319622F632F6F2F033085
:101EC8006D020318682F692F6F2F01302000D90089
:101ED80059082100ED076E086C060319742F752F39
:101EE800762FED016E082000D90059082100EC007A
:101EF80003306D02031C812F822F8C2FF9010930CA
:101F08002000D9005908DD00FF3023008C00F601BD
:101F18007808843181248F318F3196278F31482F6B
:101F280082313E2A11302000A0000030A1008E31FD
:101F38003A268F31F0302000A9002630AA00200868
:101F48002907860021082A3D870001088E319B2633
:101F58008F312000AB002B08E0001030A0000030CB
:101F6800A1008E313A268F31F0302000A9002530AB
:101F7800AA0020082907860021082A3D87000108B1
:101F88008E319B268F312000AB002B08DF001630E6
:101F9800A0000030A1008E313A268F31F0302000A9
:101FA800A9002430AA0020082907860021082A3D14
:101FB800870001088E319B268F312000AB002B084B
:101FC800E2001730A0000030A1008E313A268F3190
:101FD800F0302000A9002330AA0020082907860035
:101FE80021082A3D870001088E319B268F31200069
:081FF800AB002B08E10008001A
:020000040001F9
:0A000E008C3FFE379F3FFF1FFF3FAE
:00000001FF
