:020000040000FA
:040000008231212AFE
:1000060001347E1480312E000F1C0A280B281F2A6B
:100016008C31DA248031F4007408F500D1292100EE
:10002600DA01DB014030F4007408DC00DD01DE019A
:100036005A30F4007408DF007508F4007408F600FE
:10004600DF297808031D282829282E282100DA010F
:10005600DB01DC01DF017808031932283328442844
:10006600FF30F40074082100DA00FF30F400740851
:10007600DB00C030F4007408DC005A30F400740869
:10008600DF002100DD01DE01DF29D8308F31662750
:1000960080311F2877080319512852285A28210031
:1000A600DA01DB01DC01DD01DE01DF011F28D830CA
:1000B6008F31662780311F28C030F4007408210074
:1000C600DA004030F4007408DB00780803196C2865
:1000D6006D2872288030F4007408DC007328DC0177
:1000E6004030F4007408DD008030F4007408DE004F
:1000F600DF01DF292100DA01DB018030F40074081A
:10010600DC004030F4007408DD00DE015030F400FD
:100116007408DF001F282100DA01DB014030F400FB
:100126007408DC00DD018030F4007408DE00DF01B5
:10013600DF292100DA01DB01DC012030F40074083C
:10014600DD00DE01DF011F2820005F08F4007408CF
:100156002100DA0020005E08F40074082100DB00AC
:10016600FF30F4007408DC00FF30F4007408DD0092
:10017600FF30F4007408DE00FF30F4007408DF007E
:100186007508F4007408F600DF292100DA01DB01A6
:10019600DC01DD01DE015A30F4007408DF00750869
:1001A600F4007408F6007803031DDA28DB28DF293B
:1001B6000230F4007408F800DF297508023A0319C2
:1001C6001228203A03195228103A03199C28703A2B
:1001D60003194828203A03197D28E03A03192428F0
:1001E600203A03195F28103A0319A728703A031911
:1001F6004D28203A03198E28103A0319C828DF29FA
:100206007508F40074082000ED00DF2920005F085F
:10021600031D0E290F291629750A031D13291429F2
:1002260016290F17DF290F13DF2980307506031DE6
:100236001D291E292129F701F70ADF29F701DF29E0
:1002460080307506031D282929292C29F801F80A6A
:10025600DF29F801DF2980307506031D332934298B
:10026600DF292100DA01DB018030F4007408DC00AC
:100276008030F4007408DD008030F4007408DE007D
:100286002830F4007408DF00DF2980307506031D6E
:100296004D294E29DF292100DA01DB01DC01E0309E
:1002A600F4007408DD00DE019A287508F40074086D
:1002B6002000EB00DF297508F40074082000DF0039
:1002C600DF297608023A03190329203A031923295C
:1002D600103A03194829703A03190929203A0319D3
:1002E6002E29D03A03195E29703A03191829303A93
:1002F60003195829DF297508F40074082000EC005A
:10030600DF29803020005E06031D8A298B29992962
:1003160075088E312F268031F40040307402031C9C
:1003260095299629992920008F17DF2920008F13F8
:10033600DF29C0307506031DA129A229A6292000A0
:10034600EF01EF0ADF292000EF01DF297508F4002D
:1003560074082000EA00DF297508F40074082000FC
:10036600DE00DF297608023A03197E29203A0319AE
:100376009C29603A03198429F03A0319AF29403AB7
:100386000319A929DF297508F40074082000E9007B
:10039600DF297608F23A0319C629DF297908013AD6
:1003A6000319E028023A03196429073A0319B52903
:1003B600013A0319CC29DF297908D83E860087013E
:1003C60001088731FB27803120000C1200320032F1
:1003D6000032003220000C160130F4007408F907D0
:1003E60077080319F729F829FE29CF30F400740895
:1003F6002100D8001D2A7808031D022A032A082A8C
:100406008230F40074082100D8007803031D0C2AFA
:100416000D2A122ACE30F40074082100D8000230CA
:100426007802031C172A182A1D2A9E30F400740825
:100436002100D8002E000F107E1009008231232AD9
:10044600803103208231FB00003084008D3085002E
:100456005D308600003087000030FF000B308D31A4
:10046600172582315D3084008D308500D8308600B6
:10047600003087000030FF0014308D31172582319F
:10048600F0308400233085000030FE000430FF0089
:100496008D310B258231F601F701F801F901FA01D8
:1004A600E801E901EA01EB01EC01ED01EE01EF01E2
:1004B600A0308400003085003830FE000030FF0098
:1004C6008D310B2582312200A001A101A201A301D9
:1004D600A401A501A601A7017E1020008731302FB7
:1004E60060308D31232582312000B9003908C200E1
:1004F60061308D31232582312000B9003908C300CF
:1005060062308D31232582312000B9003908C400BC
:1005160063308D31232582312000B9003908C500AA
:1005260064308D31232582312000B9003908C60098
:1005360065308D31232582312000B9003908C70086
:1005460066308D31232582312000B9003908C80074
:1005560067308D31232582312000B9003908C90062
:10056600CA01CB0120004B08803AB900803039021D
:10057600031DBF2A42084A020318C22AC32AD02AE8
:10058600F0302000B9002630BA004A083907860044
:100596004B083A3D870081011D2B20004B08803A0D
:1005A600803C031DD82A4A0843020318DB2ADC2AAA
:1005B600EE2AF0302000B9002630BA004A08390782
:1005C600BB004B083A3DBC003B0886003C08870050
:1005D600FF3081001D2B20004B08B0004A08AF00F9
:1005E6004208B900BA013908B1003A08B200430816
:1005F600BB00BC013B08B3003C08B4000030B500AA
:10060600B600FF30B7000030B8008D319125823139
:100616002000BD00F030BE002630BF004A083E076D
:10062600C0004B083F3DC1004008860041088700D6
:100636003D0881004B08803AB90080303902031D1D
:10064600262B44084A020318292B2A2B372BF03075
:100656002000B9002530BA004A08390786004B0841
:100666003A3D87008101842B20004B08803A803C6C
:10067600031D3F2B4A0845020318422B432B552BDB
:10068600F0302000B9002530BA004A083907BB000F
:100696004B083A3DBC003B0886003C088700FF300B
:1006A6008100842B20004B08B0004A08AF004408A4
:1006B600B900BA013908B1003A08B2004508BB00D2
:1006C600BC013B08B3003C08B4000030B500B600DE
:1006D600FF30B7000030B8008D31912582312000FF
:1006E600BD00F030BE002530BF004A083E07C000FE
:1006F6004B083F3DC10040088600410887003D0881
:1007060081004B08803AB90080303902031D8D2BD9
:1007160046084A020318902B912B9E2BF03020009E
:10072600B9002430BA004A08390786004B083A3D1A
:1007360087008101EB2B20004B08803A803C031D8B
:10074600A62B4A0847020318A92BAA2BBC2BF0306C
:100756002000B9002430BA004A083907BB004B080C
:100766003A3DBC003B0886003C088700FF3081000C
:10077600EB2B20004B08B0004A08AF004608B90032
:10078600BA013908B1003A08B2004708BB00BC01FB
:100796003B08B3003C08B4000030B500B600FF309B
:1007A600B7000030B8008D31912582312000BD00A0
:1007B600F030BE002430BF004A083E07C0004B0898
:1007C6003F3DC10040088600410887003D08810082
:1007D6004B08803AB90080303902031DF42B4808D3
:1007E6004A020318F72BF82B052CF0302000B9002D
:1007F6002330BA004A08390786004B083A3D87007D
:100806008101522C20004B08803A803C031D0D2CA0
:100816004A0849020318102C112C232CF030200012
:10082600B9002330BA004A083907BB004B083A3DE5
:10083600BC003B0886003C088700FF308100522C34
:1008460020004B08B0004A08AF004808B900BA01BA
:100856003908B1003A08B2004908BB00BC013B08A0
:10086600B3003C08B4000030B500B600FF30B70056
:100876000030B8008D31912582312000BD00F03066
:10088600BE002330BF004A083E07C0004B083F3D6C
:10089600C10040088600410887003D0881000130FC
:1008A600CA070030CB3D4B08803AB9008130390287
:1008B600031D5F2C00304A02031C622C632CB52AF0
:1008C60008002000A20000300F1A0130FB007B0850
:1008D6005D0603196F2C702C722CE8017C2C0430F9
:1008E60068020318772C782C7C2C0130A000200895
:1008F600E80704306802031C812C822C862C7B08B6
:10090600A0002008E7007B08A0002008DD000030DA
:100916008C1B01302100C100003020000C1B01306F
:100926002100C300003020000D1801302100C00056
:10093600003020008D1801302100C2000030200058
:100946000F1801302100C500003020000E190130BB
:100956002100C600003020000D1B01302100C4001C
:10096600003020008D1B01302100C7000030200020
:100976000C1801302100B800003020008C1901301D
:100986002100BA00003020000C1901302100B90006
:10099600003020008C1801302100BB000030200000
:1009A6000D1A01302100BC00003020008D1A0130E4
:1009B6002100BE00003020000D1901302100BD00CD
:1009C600003020008D1901302100BF0008307A0266
:1009D600031CEE2CEF2CF02CFA017A08C03E8600A0
:1009E60087010108031DF82CF92C022D0130200087
:1009F600A0007A08A83E86008701200881077A08A9
:100A0600B83E860087010108031D0A2D0B2D142D03
:100A160001302000A0007A08A03E86008701200849
:100A260081077A08B03E860087017A08C03E8400B6
:100A36008501000801060319212D222D3D2D7A0876
:100A4600A83E86008701810101302000A0007A0AB5
:100A56002D2DA035890B2C2D2008A1002108E60498
:100A660022080319372D382D3D2D7A08D03E8600F1
:100A7600870181017A08203E8600013087007A08C6
:100A8600B83E840085010008010603194B2D4C2D44
:100A9600672D7A08A03E860087018101013020007B
:100AA600A0007A0A572DA035890B562D2008A100E3
:100AB6002108E50422080319612D622D672D7A08A5
:100AC600C83E8600870181017A08A83E8600870114
:100AD60003300102031C702D712D8B2D0130200077
:100AE600A0007A0A772DA035890B762D2008FF3ACB
:100AF600A1002108E60522080319822D832D8B2DDE
:100B0600FF30A0007A08D03E8600870120088100C9
:100B16007A08A03E8600870103300102031C942D4B
:100B2600952DAF2D01302000A0007A0A9B2DA0350F
:100B3600890B9A2D2008FF3AA1002108E505220815
:100B46000319A62DA72DAF2DFF30A0007A08C83EA9
:100B560086008701200881007A08C03E860087014A
:100B660001082000A0007A08B03E86008701200810
:100B760081007A08B83E860087010108A0007A083D
:100B8600203E860001308700200881000130A00049
:100B96002008FA0708008B130B1310302000A00062
:100BA6000030A1008D31D825853120002008CC00E9
:100BB6004C08CD001030A0000030A1008D31D825A2
:100BC600853120002008CC004C08CE001130A00052
:100BD6000030A1008D31D825853120002008CC00B9
:100BE6004C08CF001130A0000030A1008D31D8256F
:100BF600853120002008CC004C08D0001630A0001B
:100C06000030A1008D31D825853120002008CC0088
:100C16004C08D1001630A0000030A1008D31D82537
:100C2600853120002008CC004C08D2001730A000E7
:100C36000030A1008D31D825853120002008CC0058
:100C46004C08D3001730A0000030A1008D31D82504
:100C5600853120002008CC004C08D40000308431B7
:100C6600642485317F3020006606031D3B2E3C2E12
:100C7600432ECF306506031D412E422E432EE32E12
:100C86001030A0000030A1008D31D825853120001C
:100C96002008CC004C08D5001130A0000030A1007F
:100CA6008D31D825853120002008CC004C08D6008F
:100CB6001630A0000030A1008D31D82585312000E6
:100CC6002008CC004C08D7001730A0000030A10047
:100CD6008D31D825853120002008CC004C08D8005D
:100CE600560850020318782E792E7D2E5608CC0011
:100CF6004C08D0004F0856020318822E832E872EEA
:100D06005608CC004C08CF0055084E0203188C2E0E
:100D16008D2E912E5508CC004C08CE004D0855025C
:100D26000318962E972E9B2E5508CC004C08CD0006
:100D3600580854020318A02EA12EA52E5808CC0040
:100D46004C08D400530858020318AA2EAB2EAF2E17
:100D56005808CC004C08D300570852020318B42E8A
:100D6600B52EB92E5708CC004C08D20051085702B0
:100D76000318BE2EBF2EC32E5708CC004C08D10038
:100D86006F306606031DC82EC92E312E3F3065060C
:100D9600031DCE2ECF2E312ECD01FF30CC004C08B8
:100DA600CE00CF01FF30CC004C08D000D101FF307F
:100DB600CC004C08D200D301FF30CC004C08D40044
:100DC6004D08CC004C08A00060308D31B32585312C
:100DD60020004E08CC004C08A00061308D31B325B0
:100DE600853120004F08CC004C08A00062308D31C0
:100DF600B325853120005008CC004C08A000633094
:100E06008D31B325853120005108CC004C08A00057
:100E160064308D31B325853120005208CC004C0852
:100E2600A00065308D31B325853120005308CC00F4
:100E36004C08A00066308D31B3258531200054085A
:100E4600CC004C08A00067308D31B3258531823146
:100E5600732285318B170B1708008D314925873191
:100E66008E31032687318C31F624873101308D315E
:100E760023258731003A0319412F422F872F6930E6
:100E86002000D9005908A00068308D31B32587317C
:100E96002000A00160308D31B3258731FF3020005E
:100EA600D9005908A00061308D31B3258731200063
:100EB600A00162308D31B3258731FF302000D90083
:100EC6005908A00063308D31B32587312000A00179
:100ED60064308D31B3258731FF302000D9005908A1
:100EE600A00065308D31B32587312000A001663022
:100EF6008D31B3258731FF302000D9005908A00075
:100F060067308D31B32587318231732287312000D6
:100F1600DA01DB010C167F3020006606031D942FD4
:100F2600952F9E2F5F306506031D9A2F9B2F9E2FB0
:100F36008531CE25873178080319A22FA32FA62F36
:100F460020008F16A82F20008F126708031DAC2FD4
:100F5600AD2FC12F6F08031DB12FB22FC12F6E0801
:100F66000319B62FB72FC12F78080319BB2FBC2F33
:100F7600BE2FF801C02FF801F80AEE016708031921
:100F8600C52FC62FC82FEE01EE0A00308C1A01308D
:100F9600DC005C080319D02FD12FDB2F03305B0256
:100FA6000318D62FD72FDB2F0130D9005908DB07BE
:100FB6005C085A060319E02FE12FE22FDB015C08DB
:100FC600D9005908DA0003305B02031CEB2FEC2F23
:100FD600F12FF901FF3023008C00F60178088431E7
:100FE600642487318E31FC2687318E2F8231212A67
:0A0FF600F000700823008C000800D2
:1019A80023000F1CD82CD92CD42C08008C31D4241B
:1019B8008C3123000C08080055303D008F00AA30F8
:1019C8008F008F010800553030009F00AA309F001B
:1019D8009E14080055303D008F00AA308F0001305A
:1019E8008F000800043021009300940195019A01AA
:1019F8003F309800931708000134FF34FF34033454
:101A0800F734F734F734F734FF34FF340134640023
:101A1800800101310130FE020030FF3B7F087E0467
:101A2800031D0C2D0034FE0012001E000130FE02C2
:101A38000030FF3B7F087E04031D182D0034200072
:101A4800A10030001E17F0309B0020002108300054
:101A58009A001E141C082000A0002008A2002208DA
:101A680008002000A300231D3A2D3B2D3F2D2208FE
:101A780023008F00432D2008220423008F0020001C
:101A8800230821042300900008002000A001103042
:101A9800A4002408A1004030A5002508A200243095
:101AA8008D3135258D318B170B172E000F1019141A
:101AB800080082345A3400340034003400340034CE
:101AC800003400340034003400340034003400346E
:101AD800003400340034003400342000A401A5018F
:101AE800201C772D782D7C2D2208A4072308A53DDE
:101AF8000130A235A30D890B7D2D0130A136A00C34
:101B0800890B822D20082104031D8B2D8C2D742D0B
:101B18002508A1002408A00008002000310833028D
:101B2800A6003208343BA70031082F02A000320873
:101B3800303BA10035083702A2003608383BA30025
:101B48008D3171258D3120002108A9002008A800B9
:101B58008E319C268D31200026083507080020008C
:101B6800A10000308B1B0130A2008B1330001E1720
:101B78001E15F0309B002000210830009A0020003C
:101B8800200830009C008C31E7248D3130009E18ED
:101B9800CE2DCF2DCA2D1E11200022080319D52DB8
:101BA800D62DD72D8B1708002000200821009E0075
:101BB8009C013F309D0013141318E32DE42DE02DF4
:101BC8000C082000A2000230A236890BE82D22085A
:101BD800A300A40121000D082000A500A6010630DD
:101BE800A535A60D890BF42D23082504A700240884
:101BF8002604A8002708A0002808A1000800FF3034
:101C080020009100FF309200FF309300FF309400D5
:101C1800FF3095003E00B801C301C330CE00D901A2
:101C2800E401CF30B900FF30C4000430CF000130E8
:101C3800DA00E501200094123E005A1620009312A3
:101C480011128C31E0248E3115303E00A5008C3104
:101C5800EE248E310800F30073080F39F0000430C9
:101C6800F035890B342E7308F1000430F136890BF6
:101C78003A2E71080F397004F2007208F3007308E5
:101C88003339F0000230F035890B472E7308F10024
:101C98000230F136890B4D2E710833397004F20089
:101CA8007208F30073085539F0000130F035890BDC
:101CB8005A2E733655397004F1007108F300730811
:101CC80008002000A30023080F39A0000430A03525
:101CD800890B6B2E2308A1000430A136890B712EC5
:101CE80021080F392004A2002208A3002308333951
:101CF800A0000230A035890B7E2E2308A1000230F7
:101D0800A136890B842E210833392004A200220829
:101D1800A30023085539A0000130A035890B912E66
:101D2800233655392004A1002108A3002308080000
:101D38002000AC01A71FA12EA22EA92EA609A70933
:101D4800A60A0319A70AAC01AC0AA91FAC2EAD2E2E
:101D5800B62EA809A909A80A0319A90A0130AA00D8
:101D68002A08AC06AD01AE01260827040319BD2ECA
:101D7800BE2EED2EAB01AB0ACA2E0130A635A70D3B
:101D8800890BC22E0130AA002A08AB07A71FCD2E47
:101D9800CE2EC12E0130AD35AE0D890BCF2E2708C2
:101DA8002902031DD92E26082802031CDC2EDD2E4D
:101DB800E22E2608A8022708A93B2D140130A736D1
:101DC800A60C890BE32E0130AB02031DEC2EED2E81
:101DD800CE2E2C080319F12EF22EF72EAD09AE09DE
:101DE800AD0A0319AE0A2E08A7002D08A6000800A0
:101DF80010302000A0000030A1008D31D8258E3190
:101E0800F0302000A9002630AA0020082907860003
:101E180021082A3D870001088E3165268E31200071
:101E2800AB002B08E2001130A0000030A1008D317A
:101E3800D8258E31F0302000A9002530AA002008CE
:101E48002907860021082A3D870001088E3165266A
:101E58008E312000AB002B08E1001630A0000030C6
:101E6800A1008D31D8258E31F0302000A900243012
:101E7800AA0020082907860021082A3D87000108B2
:101E88008E3165268E312000AB002B08E400173018
:101E9800A0000030A1008D31D8258E31F03020000F
:101EA800A9002330AA0020082907860021082A3D16
:101EB800870001088E3165268E312000AB002B0883
:101EC800E3000800F10020006608F0007108023EF7
:101ED80086008701700881006508F0007108033EDC
:101EE80086008701700881006408F0007108043ECC
:101EF80086008701700881006308F0007108053EBC
:101F080086008701700881006208F0007108063EAB
:101F180086008701700881006108F0007108073E9B
:101F2800860087017008810002307806031D9D2F06
:101F38009E2FFF2F21005208F0007108083E8600EE
:101F48008701700881005008F0007108093E86007A
:101F58008701700881005308F00071080A3E860066
:101F68008701700881005108F00071080B3E860057
:101F78008701700881004B08F00071080C3E86004C
:101F88008701700881004A08F00071080D3E86003C
:101F98008701700881004908F00071080E3E86002C
:101FA8008701700881004808F00071080F3E86001C
:101FB8008701700881004D08F0007108103E860006
:101FC8008701700881004C08F0007108113E8600F6
:101FD8008701700881004F08F0007108123E8600E2
:101FE8008701700881004E08F0007108133E8600D2
:081FF800870170088100080058
:020000040001F9
:0A000E008C3FFE379F3FFF1FFF3FAE
:00000001FF
