:020000040000FA
:040000008131DE2943
:100008007E1480312E000F1C0A280B28DC298D3124
:10001800CA258031F4007408F50092297508F400A7
:1000280074082000EC009A29750A031D1C281D2855
:10003800202820000F169A2920000F129A298030B4
:100048007506031D282829282C28F701F70A9A295C
:10005800F7019A2980307506031D3328342837287C
:10006800F801F80A9A29F8019A2980307506031DC3
:100078003E283F2853282000D901DA018030F400B7
:100088007408DB008030F4007408DC008030F40071
:100098007408DD002830F4007408DE009A29200076
:1000A800D901DA018030F4007408DB004030F40034
:1000B8007408DC00DD015030F4007408DE009A2971
:1000C80080307506031D69286A2875282000D90123
:1000D800DA01DB01E030F4007408DC00DD01DE0148
:1000E8009A292000D901DA01DB012030F4007408D4
:1000F800DC0072287608023A03191228203A0319FC
:100108002E28103A03196428703A03191828203A3F
:1001180003193928A03A03192328303A03199A29D0
:100128009A297508F40074082000EB009A297508CC
:100138008F3105278031F40040307402031CA52854
:10014800A62820281D287608023A03199528403A3F
:1001580003199B28B03A03199A299A292000D90132
:10016800DA014030F4007408DB00DC01DD015A30AC
:10017800F4007408DE000230F4007408F800750812
:10018800F4007408F6009A2978080319CC28CD28B9
:10019800E128FF30F40074082000D900FF30F40093
:1001A8007408DA00C030F4007408DB00DC01DD01FB
:1001B8005A30F4007408DE009A292000D901DA01C7
:1001C800DB01DC01DD01DE019A2957308631A926E1
:1001D8008031C32877080319F228F328FB28200068
:1001E800D901DA01DB01DC01DD01DE01C32857306A
:1001F8008631A9268031C328C030F4007408200055
:10020800D9004030F4007408DA00780803190D2981
:100218000E2913298030F4007408DB001429DB014F
:100228004030F4007408DC008030F4007408DD000D
:10023800DE019A292000D901DA018030F40074081F
:10024800DB008030F4007408DC008030F4007408AF
:10025800DD005030F4007408DE00C3282000D90106
:10026800DA014030F4007408DB00DC018030F4006F
:100278007408DD0073282000D901DA01DB01203081
:10028800F4007408DC00DD01DE01C328FF30F4004F
:1002980074082000D900FF30F4007408DA00FF3039
:1002A800F4007408DB00FF30F4007408DC00FF3051
:1002B800F4007408DD00FF30F4007408DE009A29A9
:1002C8002000D901DA01DB01DC01DD015A30F4003C
:1002D8007408DE009A297508023A0319B228203AF0
:1002E8000319F328103A03193F29703A0319E9282A
:1002F800203A03191E29E03A0319C828203A03199D
:100308000029103A03194A29703A0319EE28203AAD
:1003180003193229103A031964299A297908033AEA
:1003280003197E28073A0319A7286F297908573E29
:100338008600870101088D31BF25803120000C120D
:10034800003200320032003220000C1650087902C8
:100358000318AF29B029B4290130F4007408F9074B
:1003680077080319B829B929BE29CF30F4007408D1
:10037800D700DA297808031DC229C329C729823082
:10038800F4007408D7007803031DCB29CC29D029A1
:10039800CE30F4007408D70002307802031CD52947
:1003A800D629DA299E30F4007408D7002E000F10E1
:1003B8007E1009008131E0298731FF278131FB0058
:1003C800303084008E308500503086000030870041
:1003D8000030FF001B308D31FC258131F030840066
:1003E800233085000030FE000430FF008D31F025F9
:1003F8008131F601F701F801F901FA01EB01EC018D
:10040800A0308400003085004030FE000030FF003E
:100418008D31F02581317E1020008F319B2F603087
:100428008731ED2782312000B9003908C2006130D8
:100438008731ED2782312000B9003908C3006230C6
:100448008731ED2782312000B9003908C4006330B4
:100458008731ED2782312000B9003908C5006430A2
:100468008731ED2782312000B9003908C600653090
:100478008731ED2782312000B9003908C70066307E
:100488008731ED2782312000B9003908C80067306C
:100498008731ED2782312000B9003908C900CA0127
:1004A800CB0120004B08803AB90080303902031D87
:1004B8005F2A42084A020318622A632A702AF03027
:1004C8002000B9002630BA004A08390786004B08D0
:1004D8003A3D87008101BD2A20004B08803A803CC4
:1004E800031D782A4A08430203187B2A7C2A8E2A8D
:1004F800F0302000B9002630BA004A083907BB009E
:100508004B083A3DBC003B0886003C088700FF309A
:100518008100BD2A20004B08B0004A08AF004208FD
:10052800B900BA013908B1003A08B2004308BB0063
:10053800BC013B08B3003C08B4000030B500B6006D
:10054800FF30B7000030B8008E316B2682312000B2
:10055800BD00F030BE002630BF004A083E07C0008C
:100568004B083F3DC10040088600410887003D0810
:1005780081004B08803AB90080303902031DC62A31
:1005880044084A020318C92ACA2AD72AF030200088
:10059800B9002530BA004A08390786004B083A3DA9
:1005A80087008101242B20004B08803A803C031DE2
:1005B800DF2A4A0845020318E22AE32AF52AF0301E
:1005C8002000B9002530BA004A083907BB004B089B
:1005D8003A3DBC003B0886003C088700FF3081009C
:1005E800242B20004B08B0004A08AF004408B9008B
:1005F800BA013908B1003A08B2004508BB00BC018D
:100608003B08B3003C08B4000030B500B600FF302A
:10061800B7000030B8008E316B2682312000BD0053
:10062800F030BE002530BF004A083E07C0004B0826
:100638003F3DC10040088600410887003D08810011
:100648004B08803AB90080303902031D2D2B46082B
:100658004A020318302B312B3E2BF0302000B90012
:100668002430BA004A08390786004B083A3D87000B
:1006780081018B2B20004B08803A803C031D462BC0
:100688004A0847020318492B4A2B5C2BF0302000FC
:10069800B9002430BA004A083907BB004B083A3D74
:1006A800BC003B0886003C088700FF3081008B2B8C
:1006B80020004B08B0004A08AF004608B900BA014C
:1006C8003908B1003A08B2004708BB00BC013B0832
:1006D800B3003C08B4000030B500B600FF30B700E6
:1006E8000030B8008E316B2682312000BD00F0301A
:1006F800BE002430BF004A083E07C0004B083F3DFB
:10070800C10040088600410887003D0881004B0869
:10071800803AB90080303902031D942B48084A02F8
:100728000318972B982BA52BF0302000B900233005
:10073800BA004A08390786004B083A3D870081010C
:10074800F22B20004B08803A803C031DAD2B4A0851
:1007580049020318B02BB12BC32BF0302000B9008D
:100768002330BA004A083907BB004B083A3DBC00A1
:100778003B0886003C088700FF308100F22B2000F0
:100788004B08B0004A08AF004808B900BA01390858
:10079800B1003A08B2004908BB00BC013B08B300ED
:1007A8003C08B4000030B500B600FF30B700003098
:1007B800B8008E316B2682312000BD00F030BE00BB
:1007C8002330BF004A083E07C0004B083F3DC10028
:1007D80040088600410887003D0881000130CA07AB
:1007E8000030CB3D4B08803AB90081303902031DF7
:1007F800FF2B00304A02031C022C032C552A080048
:100808008B130B1311302000A0000030A1008E3193
:10081800DA26843120002008A9002908AA0011300E
:10082800A0000030A1008E31DA2684312000200893
:10083800A9002908AB001030A0000030A1008E31BB
:10084800DA26843120002008A9002908AC001030DD
:10085800A0000030A1008E31DA2684312000200863
:10086800A9002908AD001630A0000030A1008E3183
:10087800DA26843120002008A9002908AE001630A5
:10088800A0000030A1008E31DA2684312000200833
:10089800A9002908AF001730A0000030A1008E3150
:1008A800DA26843120002008A9002908B000173072
:1008B800A0000030A1008E31DA2684312000200803
:1008C800A9002908B10000308531652584316F30D1
:1008D80020005606031D712C722C8D2C3F305506B6
:1008E800031D772C782C8D2CAA01FF30A90029082C
:1008F800AB00AC01FF30A9002908AD00AE01FF3004
:10090800A9002908AF00B001FF30A9002908B100EB
:100918001B2D7F305606031D922C932C9A2CCF301A
:100928005506031D982C992C9A2C1B2D1130A000CC
:100938000030A1008E31DA26843120002008A90079
:100948002908B2001030A0000030A1008E31DA264C
:10095800843120002008A9002908B3001630A0001F
:100968000030A1008E31DA26843120002008A90049
:100978002908B4001730A0000030A1008E31DA2613
:10098800843120002008A9002908B50033082D0269
:100998000318CF2CD02CD42C3308A9002908AD007B
:1009A8002C0833020318D92CDA2CDE2C3308A900C2
:1009B8002908AC0032082B020318E32CE42CE82C9D
:1009C8003208A9002908AB002A0832020318ED2CC6
:1009D800EE2CF22C3208A9002908AA0035083102A9
:1009E8000318F72CF82CFC2C3508A9002908B100AD
:1009F800300835020318012D022D062D3508A900EF
:100A08002908B00034082F0203180B2D0C2D102DC7
:100A18003408A9002908AF002E0834020318152D40
:100A2800162D672C3408A9002908AE00672C2A085F
:100A3800A9002908A00060308E318D26843120005D
:100A48002B08A9002908A00061308E318D26843139
:100A580020002C08A9002908A00062308E318D26BC
:100A6800843120002D08A9002908A00063308E31A8
:100A78008D26843120002E08A9002908A0006430A2
:100A88008E318D26843120002F08A9002908A00066
:100A980065308E318D26843120003008A900290860
:100AA800A00066308E318D26843120003108A900DF
:100AB8002908A00067308E318D2684318B170B17DB
:100AC80008002000A20000308C1B01302100C90062
:100AD800003020000C1B01302100CB00003020002A
:100AE8000D1801302100C800003020008D18013099
:100AF8002100CA00003020000F1801302100CD006D
:100B0800003020000E1901302100CE0000302000F6
:100B18000D1B01302100CC00003020008D1B01305E
:100B28002100CF00003020000C1801302100C00047
:100B3800003020008C1901302100C2000030200054
:100B48000C1901302100C100003020008C18013040
:100B58002100C300003020000D1A01302100C4001C
:100B6800003020008D1A01302100C600003020001E
:100B78000D1901302100C500003020008D19013009
:100B88002100C70008307A02031CCB2DCC2DCD2DB7
:100B9800FA017A08C83E860087010108031DD52D91
:100BA800D62DDF2D01302000A0007A08A83E86004F
:100BB8008701200881077A08C03E8600870101085E
:100BC800031DE72DE82DF12D01302000A0007A0843
:100BD800A03E86008701200881077A08B83E860073
:100BE80087017A08C83E84008501000801060319B8
:100BF800FE2DFF2D1A2E7A08A83E86008701810156
:100C080001302000A0007A0A0A2EA035890B092E8F
:100C18002008A1002108D60422080319142E152E35
:100C28001A2E7A08D83E8600870181017A08B03EDC
:100C3800860087017A08C03E840085010008010605
:100C48000319272E282E432E7A08A03E86008701F6
:100C5800810101302000A0007A0A332EA035890BCB
:100C6800322E2008A1002108D504220803193D2EA0
:100C78003E2E432E7A08D03E8600870181017A08ED
:100C8800A83E8600870103300102031C4C2E4D2E1E
:100C9800672E01302000A0007A0A532EA035890B58
:100CA800522E2008FF3AA1002108D6052208031970
:100CB8005E2E5F2E672EFF30A0007A08D83E860091
:100CC8008701200881007A08A03E8600870103304A
:100CD8000102031C702E712E8B2E01302000A00003
:100CE8007A0A772EA035890B762E2008FF3AA100C4
:100CF8002108D50522080319822E832E8B2EFF305A
:100D0800A0007A08D03E86008701200881007A0872
:100D1800C83E8600870101082000A0007A08B83E76
:100D280086008701200881007A08C03E8600870176
:100D38000108A0007A08B03E8600870120088100DB
:100D48000130A0002008FA070800F100200056082A
:100D5800F0007108023E860087017008810055087E
:100D6800F0007108033E86008701700881007B0847
:100D7800F0007108043E860087017008810054085D
:100D8800F0007108053E860087017008810053084D
:100D9800F0007108063E860087017008810052083D
:100DA800F0007108073E8600870170088100023054
:100DB8007806031DE02EE12E472F1430F00070084E
:100DC800D00021005A08F0007108083E860087010B
:100DD800700881005808F0007108093E86008701F4
:100DE800700881005B08F00071080A3E86008701E0
:100DF800700881005908F00071080B3E86008701D1
:100E0800700881005308F00071080C3E86008701C5
:100E1800700881005208F00071080D3E86008701B5
:100E2800700881005108F00071080E3E86008701A5
:100E3800700881005008F00071080F3E8600870195
:100E4800700881005508F0007108103E860087017F
:100E5800700881005408F0007108113E860087016F
:100E6800700881005708F0007108123E860087015B
:100E7800700881005608F0007108133E860087014B
:100E8800700881004B2F0530F0007008D000080072
:100E980011302000A0000030A1008E31DA26873101
:100EA800F0302000A9002630AA0020082907860073
:100EB80021082A3D870001088731B627873120009D
:100EC800AB002B08D3001030A0000030A1008E31F9
:100ED800DA268731F0302000A9002530AA00200842
:100EE8002907860021082A3D870001088731B6278F
:100EF80087312000AB002B08D2001630A00000304C
:100F0800A1008E31DA268731F0302000A900243084
:100F1800AA0020082907860021082A3D8700010821
:100F28008731B62787312000AB002B08FB0017302C
:100F3800A0000030A1008E31DA268731F030200081
:100F4800A9002330AA0020082907860021082A3D85
:100F5800870001088731B62787312000AB002B08AE
:100F6800D40008002000A30023080F39A000043093
:100F7800A035890BBC2F2308A1000430A136890BAA
:100F8800C22F21080F392004A2002208A300230839
:100F98003339A0000230A035890BCF2F2308A100D8
:100FA8000230A136890BD52F210833392004A2003D
:100FB8002208A30023085539A0000130A035890B69
:100FC800E22F233655392004A1002108A300230865
:100FD80008002000A10030001E17F0309B00200000
:100FE800210830009A001E141C082000A0002008C8
:080FF800A20022080800F734F2
:101B7E00F000700823008C00080023000F1CC82DF5
:101B8E00C92DC42D08008D31C4258D3123000C08BC
:101B9E00080055303D008F00AA308F008F010800DD
:101BAE00553030009F00AA309F009E14080055301B
:101BBE003D008F00AA308F0001308F0008000430E6
:101BCE0021009300940195019A013F3098009317DC
:101BDE0008006400800101310130FE020030FF3B3D
:101BEE007F087E04031DF12D0034FE0012001E003E
:101BFE000130FE020030FF3B7F087E04031DFD2DE9
:101C0E0000342000A300231D0D2E0E2E122E2208AE
:101C1E0023008F00162E2008220423008F002000A0
:101C2E00230821042300900008002000A00110309A
:101C3E00A4002408A1004030A5002508A2002430ED
:101C4E008E3108268E318B170B172E000F1019149C
:101C5E00080009340334F734F734F734FF34FF3413
:101C6E0082345A34003400340034003400340034EA
:101C7E0000340034003400340034003400340034B6
:101C8E0000340034003400342000A401A501201CCF
:101C9E00512E522E562E2208A4072308A53D0130A0
:101CAE00A235A30D890B572E0130A136A00C890B3E
:101CBE005C2E20082104031D652E662E4E2E25084F
:101CCE00A1002408A0000800200031083302A6005D
:101CDE003208343BA70031082F02A0003208303BF7
:101CEE00A10035083702A2003608383BA3008E311A
:101CFE004B268E3120002108A9002008A8008F3124
:101D0E003B278E3120002608350708002000A10051
:101D1E0000308B1B0130A2008B1330001E171E15D6
:101D2E00F0309B002000210830009A00200020088F
:101D3E0030009C008D31D7258E3130009E18A82E94
:101D4E00A92EA42E1E11200022080319AF2EB02E8C
:101D5E00B12E8B170800FF3020009100FF3092004B
:101D6E00FF309300EF309400FF3095003E00B80135
:101D7E00C301C330CE00D901E401CF30B900FF302A
:101D8E00C4000430CF000130DA00E50120009312C8
:101D9E0011128D31D0258E3115303E00A5008D31BA
:101DAE00DE258E3108002000200821009E009C01B7
:101DBE003F309D0013141318E52EE62EE22E0C086C
:101DCE002000A2000230A236890BEA2E2208A300C0
:101DDE00A40121000D082000A500A6010630A5359E
:101DEE00A60D890BF62E23082504A7002408260429
:101DFE00A8002708A0002808A1000800F300730817
:101E0E000F39F0000430F035890B0A2F7308F100FA
:101E1E000430F136890B102F71080F397004F2005F
:101E2E007208F30073083339F0000230F035890B75
:101E3E001D2F7308F1000230F136890B232F710824
:101E4E0033397004F2007208F30073085539F0004C
:101E5E000130F035890B302F733655397004F1008F
:101E6E007108F300730808002000AC01A71F402F73
:101E7E00412F482FA609A709A60A0319A70AAC01E4
:101E8E00AC0AA91F4B2F4C2F552FA809A909A80A38
:101E9E000319A90A0130AA002A08AC06AD01AE0149
:101EAE002608270403195C2F5D2F8C2FAB01AB0A7C
:101EBE00692F0130A635A70D890B612F0130AA00BD
:101ECE002A08AB07A71F6C2F6D2F602F0130AD3581
:101EDE00AE0D890B6E2F27082902031D782F2608B9
:101EEE002802031C7B2F7C2F812F2608A80227088F
:101EFE00A93B2D140130A736A60C890B822F013079
:101F0E00AB02031D8B2F8C2F6D2F2C080319902FD6
:101F1E00912F962FAD09AE09AD0A0319AE0A2E0800
:101F2E00A7002D08A60008008E311C268F318E3199
:101F3E00B2268F318D31E6258F31823113228F31CA
:101F4E005A302000CC004C08D800CD01CE010C1622
:101F5E007F3020005606031DB52FB62FBF2F5F30E2
:101F6E005506031DBB2FBC2FBF2F843104248F3188
:101F7E0078080319C32FC42FC72F20000F16C92F9F
:101F8E0020000F1200308C1A0130CF004F080319B9
:101F9E00D12FD22FDC2F03304E020318D72FD82F7C
:101FAE00DC2F0130CC004C08CE074F084D0603192C
:101FBE00E12FE22FE32FCE014F08CC004C08CD00CD
:101FCE0003304E02031CEC2FED2FF62FF9010930D2
:101FDE00CC004C08D000FF3023008C00F6017808AE
:101FEE00853165258F3187314C278F31AF2F813168
:021FFE00DE29DA
:020000040001F9
:0A000E008C3FFE379F3FFF1FFF3FAE
:00000001FF
