:020000040000FA
:040000008231242AFB
:1000060001347E1480312E000F1C0A280B28222A68
:100016008D310F258031F4007408F500D12975085B
:10002600F40074082000EB00DC2920005C08031DA6
:100036001D281E282528750A031D22282328252861
:100046000F17DC290F13DC2980307506031D2C28B9
:100056002D283028F701F70ADC29F701DC29803042
:100066007506031D372838283B28F801F80ADC29CD
:10007600F801DC2980307506031D42284328DC2957
:100086002100DA01DB018030F4007408DC008030E6
:10009600F4007408DD008030F4007408DE002830B7
:1000A600F4007408DF00DC2980307506031D5C2827
:1000B6005D28DC292100DA01DB01DC01E030F400F7
:1000C6007408DD00DE01DF01DC297508F400740820
:1000D6002000E900DC297508F40074082000DC0023
:1000E600DC297608023A03191228203A0319322825
:1000F600103A03195728703A03191828203A031999
:100106003D28D03A03196E28703A03192728303A49
:1001160003196828DC297508F40074082000EA0031
:10012600DC29803020005B06031D9A289B28A9281D
:1001360075088E3140268031F40040307402031C6D
:10014600A528A628A92820008F17DC2920008F13B0
:10015600DC29C0307506031DB128B228B628200058
:10016600ED01ED0ADC292000ED01DC297508F4001B
:1001760074082000E800DC297508F40074082000E3
:10018600DB00DC297608023A03198E28203A031987
:10019600AC28603A03199428F03A0319BF28403A6C
:1001A6000319B928DC297508F40074082000E70053
:1001B600DC297608F23A0319D628DC292100DA016F
:1001C600DB014030F4007408DC00DD01DE015A304A
:1001D600F4007408DF007508F4007408F600DC29E2
:1001E6007808031DF728F828FD282100DA01DB012D
:1001F600DC01DF0178080319012902291329FF30E0
:10020600F40074082100DA00FF30F4007408DB0003
:10021600C030F4007408DC005A30F4007408DF00C3
:100226002100DD01DE01DC29D8308731332780311A
:10023600EE28770803192029212929292100DA0126
:10024600DB01DC01DD01DE01DF01EE28D83087317C
:1002560033278031EE28C030F40074082100DA001C
:100266004030F4007408DB00780803193B293C2968
:1002760041298030F4007408DC004229DC0140305A
:10028600F4007408DD008030F4007408DE00DF013D
:10029600DC292100DA01DB018030F4007408DC007F
:1002A6004030F4007408DD00DE015030F4007408BC
:1002B600DF00EE282100DA01DB014030F40074088B
:1002C600DC00DD018030F4007408DE0066282100C1
:1002D600DA01DB01DC012030F4007408DD00DE0108
:1002E600DF01EE2820005C08F40074082100DA0023
:1002F60020005B08F40074082100DB00FF30F400E6
:100306007408DC00FF30F4007408DD00FF30F400F0
:100316007408DE00FF30F4007408DF007508F4008E
:100326007408F600DC292100DA01DB01DC01DD01BD
:10033600DE015A30F4007408DF007508F400740812
:10034600F6007803031DA829A929DC290230F40048
:100356007408F800DC297508023A0319E128203AE6
:1003660003192129103A03196A29703A0319172922
:10037600203A03194C29E03A0319F328203A0319C5
:100386002E29103A03197529703A03191C29203AA7
:1003960003195D29103A03199629DC297908033ACD
:1003A60003197428073A0319C528013A0319DC28EA
:1003B600AE297908D83E8600870101088731FB27D8
:1003C600803120000C120032003200320032200050
:1003D6000C165D0879020318F129F229F629013075
:1003E600F4007408F90777080319FA29FB29012A8A
:1003F600CF30F40074082100D800202A7808031DA5
:10040600052A062A0B2A8230F40074082100D80037
:100416007803031D0F2A102A152ACE30F40074081B
:100426002100D80002307802031C1A2A1B2A202A2F
:100436009E30F40074082100D8002E000F107E10A4
:1004460009008231262A803103208231FB004D309B
:1004560084008D3085005A308600003087000030D9
:10046600FF000C308D3141258231933084008D3070
:100476008500D8308600003087000030FF00143039
:100486008D3141258231F0308400233085000030E3
:10049600FE000430FF008D3135258231F601F7016B
:1004A600F801F901FA01E601E701E801E901EA01CB
:1004B600EB01EC01ED01A0308400003085003830FE
:1004C600FE000030FF008D31352582312200A0016B
:1004D600A101A201A301A401A501A601A7017E1005
:1004E60020008F31772F60308D31592582312000E1
:1004F600B9003908C20061308D315925823120009A
:10050600B9003908C30062308D3159258231200087
:10051600B9003908C40063308D3159258231200075
:10052600B9003908C50064308D3159258231200063
:10053600B9003908C60065308D3159258231200051
:10054600B9003908C70066308D315925823120003F
:10055600B9003908C80067308D315925823120002D
:10056600B9003908C900CA01CB0120004B08803AFE
:10057600B90080303902031DC22A42084A02031814
:10058600C52AC62AD32AF0302000B9002630BA0080
:100596004A08390786004B083A3D87008101202B1F
:1005A60020004B08803A803C031DDB2A4A084302A0
:1005B6000318DE2ADF2AF12AF0302000B90026309F
:1005C600BA004A083907BB004B083A3DBC003B0855
:1005D60086003C088700FF308100202B20004B0856
:1005E600B0004A08AF004208B900BA013908B100A4
:1005F6003A08B2004308BB00BC013B08B3003C0804
:10060600B4000030B500B600FF30B7000030B800C7
:100616008D31C72582312000BD00F030BE00263066
:10062600BF004A083E07C0004B083F3DC1004008D6
:100636008600410887003D0881004B08803AB900D2
:1006460080303902031D292B44084A0203182C2B3B
:100656002D2B3A2BF0302000B9002530BA004A087D
:10066600390786004B083A3D87008101872B200019
:100676004B08803A803C031D422B4A08450203186A
:10068600452B462B582BF0302000B9002530BA00F8
:100696004A083907BB004B083A3DBC003B088600B8
:1006A6003C088700FF308100872B20004B08B000F4
:1006B6004A08AF004408B900BA013908B1003A083F
:1006C600B2004508BB00BC013B08B3003C08B400BF
:1006D6000030B500B600FF30B7000030B8008D31ED
:1006E600C72582312000BD00F030BE002530BF0096
:1006F6004A083E07C0004B083F3DC100400886003F
:10070600410887003D0881004B08803AB9008030D7
:100716003902031D902B46084A020318932B942B8B
:10072600A12BF0302000B9002430BA004A0839075E
:1007360086004B083A3D87008101EE2B20004B08CE
:10074600803A803C031DA92B4A0847020318AC2BAC
:10075600AD2BBF2BF0302000B9002430BA004A0878
:100766003907BB004B083A3DBC003B0886003C08F5
:100776008700FF308100EE2B20004B08B0004A08AE
:10078600AF004608B900BA013908B1003A08B2000C
:100796004708BB00BC013B08B3003C08B40000306E
:1007A600B500B600FF30B7000030B8008D31C72560
:1007B60082312000BD00F030BE002430BF004A0860
:1007C6003E07C0004B083F3DC10040088600410877
:1007D60087003D0881004B08803AB9008030390215
:1007E600031DF72B48084A020318FA2BFB2B082C8B
:1007F600F0302000B9002330BA004A0839078600D5
:100806004B083A3D87008101552C20004B08803A61
:10081600803C031D102C4A0849020318132C142C83
:10082600262CF0302000B9002330BA004A083907D8
:10083600BB004B083A3DBC003B0886003C088700DD
:10084600FF308100552C20004B08B0004A08AF004D
:100856004808B900BA013908B1003A08B200490897
:10086600BB00BC013B08B3003C08B4000030B50037
:10087600B600FF30B7000030B8008D31C725823191
:100886002000BD00F030BE002330BF004A083E07FE
:10089600C0004B083F3DC100400886004108870064
:1008A6003D0881000130CA070030CB3D4B08803A35
:1008B600B90081303902031D622C00304A02031C44
:1008C600652C662CB82A08002000A20000300F1AFA
:1008D6000130FB007B085A060319722C732C752C09
:1008E600E6017F2C0430660203187A2C7B2C7F2CC1
:1008F6000130A0002008E60704306602031C842CA1
:10090600852C892C7B08A0002008E5007B08A00028
:100916002008DA0000308C1B01302100C1000030B5
:1009260020000C1B01302100C300003020000D18F0
:1009360001302100C000003020008D180130210058
:10094600C200003020000F1801302100C500003021
:1009560020000E1901302100C600003020000D1BBA
:1009660001302100C400003020008D1B0130210021
:10097600C700003020000C1801302100B8000030FC
:1009860020008C1901302100BA00003020000C191B
:1009960001302100B900003020008C180130210000
:1009A600BB00003020000D1A01302100BC000030D1
:1009B60020008D1A01302100BE00003020000D19E4
:1009C60001302100BD00003020008D1901302100CA
:1009D600BF0008307A02031CF12CF22CF32CFA012A
:1009E6007A08C03E860087010108031DFB2CFC2CFB
:1009F600052D01302000A0007A08A83E8600870158
:100A0600200881077A08B83E860087010108031D81
:100A16000D2D0E2D172D01302000A0007A08A03EC6
:100A260086008701200881077A08B03E8600870184
:100A36007A08C03E84008501000801060319242DAA
:100A4600252D402D7A08A83E8600870181010130B8
:100A56002000A0007A0A302DA035890B2F2D200802
:100A6600A1002108E404220803193A2D3B2D402D4C
:100A76007A08D03E8600870181017A08203E8600EA
:100A8600013087007A08B83E840085010008010617
:100A960003194E2D4F2D6A2D7A08A03E8600870138
:100AA600810101302000A0007A0A5A2DA035890B59
:100AB600592D2008A1002108E30422080319642DFA
:100AC600652D6A2D7A08C83E8600870181017A085D
:100AD600A83E8600870103300102031C732D742D86
:100AE6008E2D01302000A0007A0A7A2DA035890BC0
:100AF600792D2008FF3AA1002108E40522080319F0
:100B0600852D862D8E2DFF30A0007A08D03E8600DA
:100B16008701200881007A08A03E860087010330FD
:100B26000102031C972D982DB22D01302000A00044
:100B36007A0A9E2DA035890B9D2D2008FF3AA1002B
:100B46002108E30522080319A92DAA2DB22DFF308D
:100B5600A0007A08C83E86008701200881007A082E
:100B6600C03E8600870101082000A0007A08B03E3A
:100B760086008701200881007A08B83E8600870132
:100B86000108A0007A08203E860001308700200870
:100B960081000130A0002008FA0708008B130B1310
:100BA60010302000A0000030A1008D31E9258531EC
:100BB60020002008CC004C08CD001030A0000030EA
:100BC600A1008D31E925853120002008CC004C0894
:100BD600CE001130A0000030A1008D31E92585310D
:100BE60020002008CC004C08CF001130A0000030B7
:100BF600A1008D31E925853120002008CC004C0864
:100C0600D0001630A0000030A1008D31E9258531D5
:100C160020002008CC004C08D1001630A00000307F
:100C2600A1008D31E925853120002008CC004C0833
:100C3600D2001730A0000030A1008D31E9258531A2
:100C460020002008CC004C08D3001730A00000304C
:100C5600A1008D31E925853120002008CC004C0803
:100C6600D40000308431672485317F30200064064B
:100C7600031D3E2E3F2E462ECF306306031D442E07
:100C8600452E462EE62E1030A0000030A1008D31F4
:100C9600E925853120002008CC004C08D50011300C
:100CA600A0000030A1008D31E92585312000200803
:100CB600CC004C08D6001630A0000030A1008D31C3
:100CC600E925853120002008CC004C08D7001730D4
:100CD600A0000030A1008D31E925853120002008D3
:100CE600CC004C08D8005608500203187B2E7C2EE8
:100CF600802E5608CC004C08D0004F085602031828
:100D0600852E862E8A2E5608CC004C08CF00550814
:100D16004E0203188F2E902E942E5508CC004C08A8
:100D2600CE004D0855020318992E9A2E9E2E550870
:100D3600CC004C08CD00580854020318A32EA42E4C
:100D4600A82E5808CC004C08D400530858020318A3
:100D5600AD2EAE2EB22E5808CC004C08D300570844
:100D660052020318B72EB82EBC2E5708CC004C08DA
:100D7600D200510857020318C12EC22EC62E57089C
:100D8600CC004C08D1006F306406031DCB2ECC2E50
:100D9600342E3F306306031DD12ED22E342ECD01C4
:100DA600FF30CC004C08CE00CF01FF30CC004C0801
:100DB600D000D101FF30CC004C08D200D301FF3067
:100DC600CC004C08D4004D08CC004C08A000603084
:100DD6008731D627853120004E08CC004C08A0006C
:100DE60061308731D627853120004F08CC004C086A
:100DF600A00062308731D627853120005008CC000C
:100E06004C08A00063308731D62785312000510871
:100E1600CC004C08A00064308731D62785312000ED
:100E26005208CC004C08A00065308731D6278531A2
:100E360020005308CC004C08A00066308731D62726
:100E4600853120005408CC004C08A000673087315B
:100E5600D62785318231762285318B170B1708000C
:100E6600F10020006408F0007108023E8600870148
:100E7600700881006308F0007108033E8600870150
:100E8600700881006208F0007108043E8600870140
:100E9600700881006108F0007108053E8600870130
:100EA600700881006008F0007108063E8600870120
:100EB600700881005F08F0007108073E8600870110
:100EC6007008810002307806031D6A2F6B2FD12F20
:100ED6001430F0007008DD0021005208F00071089F
:100EE600083E86008701700881005008F0007108EE
:100EF600093E86008701700881005308F0007108DA
:100F06000A3E86008701700881005108F0007108CA
:100F16000B3E86008701700881004B08F0007108BF
:100F26000C3E86008701700881004A08F0007108AF
:100F36000D3E86008701700881004908F00071089F
:100F46000E3E86008701700881004808F00071088F
:100F56000F3E86008701700881004D08F000710879
:100F6600103E86008701700881004C08F000710869
:100F7600113E86008701700881004F08F000710855
:100F8600123E86008701700881004E08F000710845
:100F9600133E8600870170088100D52F0530F000CA
:100FA6007008DD0008002000A10000308B1B013016
:100FB600A2008B1330001E171E15F0309B00200078
:100FC600210830009A002000200830009C008D3156
:100FD6001C25873130009E18F12FF22FED2F1E11A0
:100FE600200022080319F82FF92FFA2F8B17080073
:0A0FF600F000700823008C000800D2
:101A120023000F1C0D2D0E2D092D08008D310925D7
:101A22008D3123000C08080055303D008F00AA308C
:101A32008F008F010800553030009F00AA309F00B0
:101A42009E14080055303D008F00AA308F000130EF
:101A52008F000800043021009300940195019A013F
:101A62003F30980093170800640080010131013073
:101A7200FE020030FF3B7F087E04031D362D00343A
:101A8200FE0012001E000130FE020030FF3B7F0804
:101A92007E04031D422D00340134FF34FF34093427
:101AA2000334F734F734F734F734FF34FF340134B6
:101AB2002000A10030001E17F0309B0020002108FA
:101AC20030009A001E141C082000A0002008A2006A
:101AD200220808002000A300231D702D712D752DF2
:101AE200220823008F00792D2008220423008F0072
:101AF2002000230821042300900008002000A001F8
:101B02001030A4002408A1004030A5002508A2003E
:101B120024308D316B258D318B170B172E000F1052
:101B22001914080082345A3400340034003400346A
:101B32000034003400340034003400340034003403
:101B42000034003400340034003400342000A40196
:101B5200A501201CAD2DAE2DB22D2208A40723080D
:101B6200A53D0130A235A30D890BB32D0130A1365D
:101B7200A00C890BB82D20082104031DC12DC22DF4
:101B8200AA2D2508A1002408A00008002000310881
:101B92003302A6003208343BA70031082F02A0000E
:101BA2003208303BA10035083702A2003608383B24
:101BB200A3008D31A7258D3120002108A90020081E
:101BC200A8008E31AD268D31200026083507080089
:101BD2002000200821009E009C013F309D0013142C
:101BE2001318F42DF52DF12D0C082000A20002305F
:101BF200A236890BF92D2208A300A40121000D08A9
:101C02002000A500A6010630A535A60D890B052EDC
:101C120023082504A70024082604A8002708A000FA
:101C22002808A1000800FF3020009100FF30920038
:101C3200FF309300FF309400FF3095003E00B80162
:101C4200C301C330CE00D901E401CF30B900FF3067
:101C5200C4000430CF000130DA00E5012000941204
:101C62003E005A162000931211128D3115258E3125
:101C720015303E00A5008D3123258E310800F3007A
:101C820073080F39F0000430F035890B452E7308C4
:101C9200F1000430F136890B4B2E71080F397004B4
:101CA200F2007208F30073083339F0000230F035A5
:101CB200890B582E7308F1000230F136890B5E2E23
:101CC200710833397004F2007208F3007308553951
:101CD200F0000130F035890B6B2E733655397004E4
:101CE200F1007108F300730808002000A300230824
:101CF2000F39A0000430A035890B7C2E2308A100E7
:101D02000430A136890B822E21080F392004A2004B
:101D12002208A30023083339A0000230A035890B22
:101D22008F2E2308A1000230A136890B952E21089F
:101D320033392004A2002208A30023085539A00049
:101D42000130A035890BA22E233655392004A1007B
:101D52002108A300230808002000AC01A71FB22E0F
:101D6200B32EBA2EA609A709A60A0319A70AAC011F
:101D7200AC0AA91FBD2EBE2EC72EA809A909A80A02
:101D82000319A90A0130AA002A08AC06AD01AE0166
:101D9200260827040319CE2ECF2EFE2EAB01AB0A46
:101DA200DB2E0130A635A70D890BD32E0130AA00F8
:101DB2002A08AB07A71FDE2EDF2ED22E0130AD354B
:101DC200AE0D890BE02E27082902031DEA2E2608F4
:101DD2002802031CED2EEE2EF32E2608A802270859
:101DE200A93B2D140130A736A60C890BF42E013025
:101DF200AB02031DFD2EFE2EDF2E2C080319022F2F
:101E0200032F082FAD09AE09AD0A0319AE0A2E0839
:101E1200A7002D08A600080010302000A000003006
:101E2200A1008D31E9258F31F0302000A900263044
:101E3200AA0020082907860021082A3D87000108F8
:101E42008E3176268F312000AB002B08E000113056
:101E5200A0000030A1008D31E9258F31F030200043
:101E6200A9002530AA0020082907860021082A3D5A
:101E7200870001088E3176268F312000AB002B08B7
:101E8200DF001630A0000030A1008D31E9258F312E
:101E9200F0302000A9002430AA002008290786007B
:101EA20021082A3D870001088E3176268F312000D5
:101EB200AB002B08E2001730A0000030A1008D31EA
:101EC200E9258F31F0302000A9002330AA00200834
:101ED2002907860021082A3D870001088E317626CF
:101EE2008F312000AB002B08E10008008D317F25E7
:101EF2008F318E3114268F318D312B258F318231E6
:101F020076228F315A302000D90059082100D90099
:101F1200EC01ED0120000C167F3020006406031D49
:101F2200932F942F9D2F5F306306031D992F9A2FB5
:101F32009D2F8531D1258F3178080319A12FA22F2A
:101F4200A52F20008F16A72F20008F126508031DD2
:101F5200AB2FAC2FC12F6D08031DB02FB12FC12F96
:101F62006C080319B52FB62FC12F78080319BA2FA1
:101F7200BB2FBD2FF801BF2FF801F80AEC01C32FC8
:101F8200EC01EC0A00308C1A01302100EE006E08E0
:101F92000319CC2FCD2FD92F03306D020318D22F66
:101FA200D32FD92F01302000D90059082100ED0785
:101FB2006E086C060319DE2FDF2FE02FED016E088D
:101FC2002000D90059082100EC0003306D02031CE7
:101FD200EB2FEC2FF62FF90109302000D900590818
:101FE200DD00FF3023008C00F6017808843167247D
:0E1FF2008F318F310D278F318D2F8231242AB0
:020000040001F9
:0A000E008C3FFE379F3FFF1FFF3FAE
:00000001FF
