:020000040000FA
:040000008131CA2957
:100008007E1480312E000F1C0A280B28C8298E3137
:1000180031268031F2007208F30082297308F20059
:100028007208EC00EA01EA0A8A2980307306031D87
:100038001E281F2821280F168A290F128A29803086
:100048007306031D282829282C28F601F60A8A2970
:10005800F6018A2980307306031D3328342837288F
:10006800F701F70A3828F701EA018A298030730670
:10007800031D3F2840285328D801D9018030F200B9
:100088007208DA008030F2007208DB008030F2007B
:100098007208DC002830F2007208DD008A29D801D5
:1000A800D9018030F2007208DA004030F20072089C
:1000B800DB00DC015030F2007208DD008A29803054
:1000C8007306031D682869287328D801D901DA0145
:1000D800E030F2007208DB00DC01DD018A29D8017A
:1000E800D901DA012030F2007208DB007028200004
:1000F8006D08023A03191228203A03192E28103ADB
:1001080003196328703A03191928203A03193A2861
:10011800A03A03192328303A03198A298A2973082F
:10012800F2007208EB0016288A2920006D08023AAE
:1001380003199328403A03199828B03A03198A29D1
:100148008A292000D801D9014030F2007208DA006B
:10015800DB01DC015A30F2007208DD007308F2009E
:1001680072082000ED008A2977080319BC28BD28E9
:10017800D128FF30F20072082000D800FF30F200CA
:100188007208D900C030F2007208DA00DB01DC0125
:100198005A30F2007208DD008A292000D801D901FE
:1001A800DA01DB01DC01DD018A29563086318E2631
:1001B8008031B22876080319E228E328EB282000CA
:1001C800D801D901DA01DB01DC01DD01B2285630A2
:1001D80086318E268031B228C030F20072082000A5
:1001E800D8004030F2007208D90077080319FD28BA
:1001F800FE2803298030F2007208DA000429DA01A7
:100208004030F2007208DB008030F2007208DC0037
:10021800DD018A292000D801D9018030F200720856
:10022800DA008030F2007208DB008030F2007208D9
:10023800DC005030F2007208DD00B2282000D8013E
:10024800D9014030F2007208DA00DB018030F20098
:100258007208DC0071282000D801D901DA012030A9
:10026800F2007208DB00DC01DD01B228FF30F20089
:1002780072082000D800FF30F2007208D900FF3061
:10028800F2007208DA00FF30F2007208DB00FF307B
:10029800F2007208DC00FF30F2007208DD008A29E3
:1002A8002000D801D901DA01DB01DC015A30F20063
:1002B8007208DD008A297308023A0319A528203A32
:1002C8000319E328103A03192F29703A0319D9287A
:1002D800203A03190E29E03A0319B828203A0319DD
:1002E800F028103A03193A29703A0319DE28203AFF
:1002F80003192229103A031954298A297808033A3C
:1003080003197B28073A031999285F297808563E6C
:100318008600870101088E312626803120000C12C4
:10032800003200320032003220000C164E087802EB
:1003380003189F29A029A4290130F2007208F807A0
:1003480076080319A829A929AE29CF30F200720826
:10035800D600C62977080319B229B329C2296A0821
:100368000319B729B829BD299E30F2007208D600B2
:10037800C629CE30F2007208D600C6298230F200B3
:100388007208D6002E000F107E1009008131CC298A
:100398008F3084008E3085004E3086000030870014
:1003A8000030FF001C308E315C268131F030840033
:1003B800233085000030FE000430FF008E315026C7
:1003C8008131F601F701F801F901EA01EB01EC01CD
:1003D800ED01A0308400003085004030FE00003080
:1003E800FF008E31502681317E1020008F31AC2FD6
:1003F80060308E31682681312000B7003708C00090
:1004080061308E31682681312000B7003708C1007D
:1004180062308E31682681312000B7003708C2006B
:1004280063308E31682681312000B7003708C30059
:1004380064308E31682681312000B7003708C40047
:1004480065308E31682681312000B7003708C50035
:1004580066308E31682681312000B7003708C60023
:1004680067308E31682681312000B7003708C70011
:10047800C801C90120004908803AB7008030370216
:10048800031D482A4008480203184B2A4C2A592AB7
:10049800F0302000B7002630B8004808370786003B
:1004A8004908383D87008101A62A20004908803A7A
:1004B800803C031D612A480841020318642A652A02
:1004C800772AF0302000B7002630B80048083707F0
:1004D800B9004908383DBA00390886003A0887004B
:1004E800FF308100A62A20004908AE004808AD0068
:1004F8004008B700B8013708AF003808B000410815
:10050800B900BA013908B1003A08B2000030B300A6
:10051800B400FF30B5000030B6008E31CB268131F3
:100528002000BB00F030BC002630BD0048083C0766
:10053800BE0049083D3DBF003E0886003F088700D1
:100548003B0881004908803AB70080303702031D14
:10055800AF2A420848020318B22AB32AC02AF03048
:100568002000B7002530B80048083707860049083A
:10057800383D870081010D2B20004908803A803CD6
:10058800031DC82A480843020318CB2ACC2ADE2AAE
:10059800F0302000B7002530B80048083707B90008
:1005A8004908383DBA00390886003A088700FF3004
:1005B80081000D2B20004908AE004808AD00420814
:1005C800B700B8013708AF003808B0004308B900D1
:1005D800BA013908B1003A08B2000030B300B400DB
:1005E800FF30B5000030B6008E31CB2681312000B7
:1005F800BB00F030BC002530BD0048083C07BE00F9
:1006080049083D3DBF003E0886003F0887003B087B
:1006180081004908803AB70080303702031D162B45
:10062800440848020318192B1A2B272BF0302000F6
:10063800B7002430B8004808370786004908383D15
:1006480087008101742B20004908803A803C031DF3
:100658002F2B480845020318322B332B452BF0303B
:100668002000B7002430B80048083707B900490807
:10067800383DBA00390886003A088700FF30810003
:10068800742B20004908AE004808AD004408B700A4
:10069800B8013708AF003808B0004508B900BA01FA
:1006A8003908B1003A08B2000030B300B400FF3096
:1006B800B5000030B6008E31CB2681312000BB005A
:1006C800F030BC002430BD0048083C07BE00490893
:1006D8003D3DBF003E0886003F0887003B0881007B
:1006E8004908803AB70080303702031D7D2B460841
:1006F80048020318802B812B8E2BF0302000B70086
:100708002330B8004808370786004908383D870075
:100718008101DB2B20004908803A803C031D962B81
:10072800480847020318992B9A2BAC2BF03020006D
:10073800B7002330B80048083707B9004908383DE2
:10074800BA00390886003A088700FF308100DB2BA1
:1007580020004908AE004808AD004608B700B801B7
:100768003708AF003808B0004708B900BA0139089F
:10077800B1003A08B2000030B300B400FF30B50051
:100788000030B6008E31CB2681312000BB00F0301E
:10079800BC002330BD0048083C07BE0049083D3D69
:1007A800BF003E0886003F0887003B0881000130F3
:1007B800C8070030C93D4908803AB7008130370280
:1007C800031DE82B00304802031CEB2BEC2B3E2AC0
:1007D80008008B130B131030F4000030F5008F3134
:1007E8001027833174082000A7002708A8001030BC
:1007F800F4000030F5008F31102783317408200091
:10080800A7002708A9001130F4000030F5008F3147
:100818001027833174082000A7002708AA00113088
:10082800F4000030F5008F31102783317408200060
:10083800A7002708AB001630F4000030F5008F3110
:100848001027833174082000A7002708AC00163051
:10085800F4000030F5008F31102783317408200030
:10086800A7002708AD001730F4000030F5008F31DD
:100878001027833174082000A7002708AE0017301E
:10088800F4000030F5008F31102783317408200000
:10089800A7002708AF00003085314D2583316F3020
:1008A80020005506031D592C5A2C752C3F30540630
:1008B800031D5F2C602C752CA801FF30A7002708AA
:1008C800A900AA01FF30A7002708AB00AC01FF3040
:1008D800A7002708AD00AE01FF30A7002708AF002A
:1008E800032D7F305506031D7A2C7B2C822CCF30AC
:1008F8005406031D802C812C822C032D1030F4000B
:100908000030F5008F311027833174082000A700CC
:100918002708B0001130F4000030F5008F3110279F
:10092800833174082000A7002708B1001630F400AE
:100938000030F5008F311027833174082000A7009C
:100948002708B2001730F4000030F5008F31102767
:10095800833174082000A7002708B30031082B0250
:100968000318B72CB82CBC2C3108A7002708AB00FB
:100978002A0831020318C12CC22CC62C3108A70042
:100988002708AA00300829020318CB2CCC2CD02C1D
:100998003008A7002708A900280830020318D52C1A
:1009A800D62CDA2C3008A7002708A80033082F0215
:1009B8000318DF2CE02CE42C3308A7002708AF002D
:1009C8002E0833020318E92CEA2CEE2C3308A70072
:1009D8002708AE0032082D020318F32CF42CF82C4B
:1009E8003208A7002708AD002C0832020318FD2C96
:1009F800FE2C4F2C3208A7002708AC004F2C2808E3
:100A0800A7002708F40060308E31ED2683312000DE
:100A18002908A7002708F40061308E31ED268331BC
:100A280020002A08A7002708F40062308E31ED263E
:100A3800833120002B08A7002708F40063308E318B
:100A4800ED26833120002C08A7002708F400643025
:100A58008E31ED26833120002D08A7002708F400E9
:100A680065308E31ED26833120002E08A700270837
:100A7800F40066308E31ED26833120002F08A70060
:100A88002708F40067308E31ED2683318B170B175A
:100A980008002000A00000308C1B01302100C90094
:100AA800003020000C1B01302100CB00003020005A
:100AB8000D1801302100C800003020008D180130C9
:100AC8002100CA00003020000F1801302100CD009D
:100AD800003020000E1901302100CE000030200027
:100AE8000D1B01302100CC00003020008D1B01308F
:100AF8002100CF00003020000C1801302100C00078
:100B0800003020008C1901302100C2000030200084
:100B18000C1901302100C100003020008C18013070
:100B28002100C300003020000D1A01302100C4004C
:100B3800003020008D1A01302100C600003020004E
:100B48000D1901302100C500003020008D19013039
:100B58002100C70008307902031CB32DB42DB52D30
:100B6800F9017908C83E860087010108031DBD2DDB
:100B7800BE2DC62D0130F4007908A83E86008701F5
:100B8800740881077908C03E860087010108031DA3
:100B9800CE2DCF2DD72D0130F4007908A03E860048
:100BA8008701740881077908B83E860087017908AB
:100BB800C83E84008501000801060319E42DE52DCF
:100BC800002E7908A83E8600870181010130F400D3
:100BD800790AEF2DF435890BEE2D7408F5007508A8
:100BE8002000D50420080319FA2DFB2D002E7908C2
:100BF800D83E8600870181017908B03E86008701CA
:100C08007908C03E840085010008010603190D2EED
:100C18000E2E292E7908A03E860087018101013019
:100C2800F400790A182EF435890B172E7408F5008C
:100C380075082000D40420080319232E242E292EF9
:100C48007908D03E8600870181017908A83E860090
:100C5800870103300102031C322E332E4D2E013042
:100C6800F400790A382EF435890B372E7408FF3AC8
:100C7800F50075082000D50520080319442E452ED7
:100C88004D2EFF30F4007908D83E8600870174089D
:100C980081007908A03E8600870103300102031C09
:100CA800562E572E712E0130F400790A5C2EF43539
:100CB800890B5B2E7408FF3AF50075082000D405EF
:100CC80020080319682E692E712EFF30F400790868
:100CD800D03E86008701740881007908C83E8600E6
:100CE80087010108F4007908B83E86008701740876
:100CF80081007908C03E860087010108F400790860
:100D0800B03E86008701740881000130F400740841
:100D1800F9070800F10020005508F0007108023EAC
:100D280086008701700881005408F0007108033EAE
:100D380086008701700881005308F0007108043E9E
:100D480086008701700881005208F0007108053E8E
:100D580086008701700881005108F0007108063E7E
:100D680086008701700881005008F0007108073E6E
:100D780086008701700881006A080319C42EC52EF1
:100D88002B2F1430F0007008CE0021005A08F00014
:100D98007108083E86008701700881005808F00035
:100DA8007108093E86008701700881005B08F00021
:100DB80071080A3E86008701700881005908F00012
:100DC80071080B3E86008701700881005308F00007
:100DD80071080C3E86008701700881005208F000F7
:100DE80071080D3E86008701700881005108F000E7
:100DF80071080E3E86008701700881005008F000D7
:100E080071080F3E86008701700881005508F000C0
:100E18007108103E86008701700881005408F000B0
:100E28007108113E86008701700881005708F0009C
:100E38007108123E86008701700881005608F0008C
:100E48007108133E86008701700881002F2F053036
:100E5800F0007008CE0008001030F4000030F500F3
:100E68008F3110278731F0302000A7002630A800E6
:100E78007408270786007508283D870001088F3108
:100E88003A2787312000A9002908D1001130F40041
:100E98000030F5008F3110278731F0302000A7008F
:100EA8002530A8007408270786007508283D8700A4
:100EB80001088F313A2787312000A9002908D0007E
:100EC8001630F4000030F5008F3110278731F030EC
:100ED8002000A7002430A80074082707860075089A
:100EE800283D870001088F313A2787312000A90063
:100EF8002908D3001730F4000030F5008F3110278F
:100F08008731F0302000A7002330A8007408270795
:100F180086007508283D870001088F313A278731F8
:100F28002000A9002908D20008002000AA01A51F56
:100F38009E2F9F2FA62FA409A509A40A0319A50A65
:100F4800AA01AA0AA71FA92FAA2FB32FA609A70982
:100F5800A60A0319A70A0130A8002808AA06AB01A7
:100F6800AC01240825040319BA2FBB2FEA2FA901C5
:100F7800A90AC72F0130A435A50D890BBF2F013051
:100F8800A8002808A907A51FCA2FCB2FBE2F0130FC
:100F9800AB35AC0D890BCC2F25082702031DD62FA6
:100FA80024082602031CD92FDA2FDF2F2408A602D3
:100FB8002508A73B2B140130A536A40C890BE02F7C
:100FC8000130A902031DE92FEA2FCB2F2A080319A4
:100FD800EE2FEF2FF42FAB09AC09AB0A0319AC0ABB
:100FE8002C08A5002B08A400080055303D008F00F0
:080FF800AA308F008F010800F0
:101C4C00F000700823008C00080023000F1C2F2EBE
:101C5C00302E2B2E08008E312B268E3123000C08B3
:101C6C000800553030009F00AA309F009E140800D9
:101C7C0055303D008F00AA308F0001308F000800D6
:101C8C00043021009300940195019A013F30980093
:101C9C00931708006400800101310130FE0200300E
:101CAC00FF3B7F087E04031D512E0034FE00120002
:101CBC001E000130FE020030FF3B7F087E04031D36
:101CCC005D2E00342000A00030001E17F0309B0069
:101CDC002000200830009A001E141C08F400740820
:101CEC002000A10021080800F400741D7E2E7F2E18
:101CFC00842E2000220823008F00892E200020082B
:101D0C00220423008F00740820002104230090007B
:101D1C00080009340334F734F734F734F734FF345C
:101D2C00FF34CE345A3400340034003400340034E0
:101D3C0000340034003400340034003400340034F7
:101D4C0000340034003400340034F401F501200078
:101D5C00201CB12EB22EB62E2208F4072308F53D16
:101D6C000130A235A30D890BB72E0130A136A00C82
:101D7C00890BBC2E20082104031DC52EC62EAD2EAA
:101D8C007508A1007408A000080020002F0831027B
:101D9C00A4003008323BA5002F082D02A00030080B
:101DAC002E3BA10033083502A2003408363BA300B9
:101DBC008E31AB268E3120002108A7002008A6000A
:101DCC00873199278E312000240833070800200022
:101DDC00A00000308B1B0130A1008B1330001E17AC
:101DEC001E15F0309B002000200830009A0074086B
:101DFC009C008E3137268E3130009E18062F072F0F
:101E0C00022F1E112000210803190D2F0E2F0F2F4A
:101E1C008B170800740821009E009C013F309D0028
:101E2C00131413181A2F1B2F172F0C082000A000A7
:101E3C000230A036890B1F2F2008A100A20121001F
:101E4C000D082000A300A4010630A335A40D890BB6
:101E5C002B2F21082304A50022082404A600250802
:101E6C00F4002608F5000800F40074080F3920006F
:101E7C00A0000430A035890B402F7408A100043059
:101E8C00A136890B462F21080F392004A200220805
:101E9C00F40074083339A0000230A035890B532F9D
:101EAC007408A1000230A136890B592F210833394F
:101EBC002004A2002208F40074085539A000013057
:101ECC00A035890B662F743655392004A1002108E2
:101EDC00F40074080800FF3020009100FF309200DD
:101EEC00FF309300EF309400FF3095003E00B801B6
:101EFC00C301C330CE00D901E401CF30B900FF30AB
:101F0C00C4000430CF000130DA00E5012000A0014C
:101F1C001030A3002308A1004030A4002408A20024
:101F2C0024308E317A268F31200093121112873192
:101F3C00F9278F3115303E00A5008E313E268F31AA
:101F4C008B170B172E000F10191408008F317127E7
:101F5C008F318E3146268F318131FC218F315A30B1
:101F6C002000CA004A08D700CB01CC010C167F30E8
:101F7C0020005506031DC32FC42FCD2F5F305406F0
:101F8C00031DC92FCA2FCD2F8331ED238F31003084
:101F9C0020008C1A0130CD004D080319D62FD72FF5
:101FAC00DB2F0130CA004A08CC074D084B06031939
:101FBC00E02FE12FE22FCC014D08CA004A08CB00DC
:101FCC0003304C02031CEB2FEC2FF62FF8010930D9
:101FDC00CA004A08CE00FF3023008C002000ED011F
:101FEC00770885314D258F31873130278F31BD2FC3
:041FFC008131CA293C
:020000040001F9
:0A000E008C3FFE379F3FFF3FFF3F8E
:00000001FF
